:10000000B9C30000E8C30000E6C30000E4C3000079
:10001000E2C30000E0C30000DEC30000DCC3000058
:10002000DAC30000D8C30000D6C30000D4C3000068
:10003000D2C30000D0C30000CEC30000CCC3000078
:10004000CAC30000C8C30000C6C30000C4C3000088
:10005000C2C30000C0C30000BEC300000C942B0D3F
:10006000BAC300000C94DA0B0C94B10BB4C30000BB
:10007000B2C30000B0C30000AEC30000ACC30000B8
:10008000AAC30000A8C30000A6C300000C94750D0D
:10009000A2C30000A0C300009EC300009CC30000D8
:1000A0009AC3000098C3000096C3000094C30000E8
:1000B00092C3000090C300008EC300008CC30000F8
:1000C0008AC3000088C3000086C3000084C3000008
:1000D00082C3000080C300007EC300007CC3000018
:1000E0007AC30000F225F525F825FB25FE2501261B
:1000F000042607260A260D2610261326162613295F
:1001000053266A267F26B626F726512766277B27A1
:100110009E27B527FA27E6283F0C420C310C350CF8
:10012000390C790C460C4A0C500C540C580C5E0CD3
:10013000620C660C790C6C0C700C740CED18F218D7
:10014000F71801190B19841915191D1925192F19DB
:100150003919431952195C198419661970197A19D9
:100160004E414E494E495459494E46CDCCCC3D0A9C
:10017000D7233C17B7D13877CC2B329595E6241F7F
:10018000B14F0A000020410000C84200401C462038
:10019000BCBE4CCA1B0E5AAEC59D7400407A10F30B
:1001A0005A00A0724E18090010A5D4E80000E876A5
:1001B00048170000E40B54020000CA9A3B000000FC
:1001C000E1F505000080969800000040420F000015
:1001D00000A08601000000102700000000E80300D6
:1001E0000000006400000000000A000000000001A0
:1001F00000000000002C76D888DC674F0823DFC1A0
:10020000DFAE59E1B1B796E5E3E453C63AE651995A
:100210007696E8E6C28426EB898C9B62ED407C6F83
:10022000FCEFBC9C9F40F2BAA56FA5F490055A2A3A
:10023000F75C936B6CF9676DC11BFCE0E40D47FE46
:10024000F520E6B500D0ED902E030094357705003B
:1002500080841E080000204E0A000000C80C3333C2
:1002600033330F986E12831141EF8D2114893BE6D1
:100270005516CFFEE6DB18D1844B381BF77C1D905A
:100280001DA4BBE424203284725E228100C9F124C3
:10029000ECA1E53D2700002100240027002A002DC5
:1002A000003000330001010000040107010A0125AC
:1002B0003032643A253032643A2530326420743D5D
:1002C000257300253032642D253032642D253032DF
:1002D00064002020202053617665642020202020A7
:1002E000200020004252494748544E455353202095
:1002F00020200053455420434C4F434B204441544D
:10030000450053455420434C4F434B2054494D45E1
:100310002000332E3420504552494F4420342020B1
:10032000202000332E3320504552494F44203320A3
:10033000202000332E3220504552494F4420322095
:10034000202000332E3120504552494F4420312087
:1003500020200031302E50494E47202020202020E0
:1003600020202000414C41524D2D54454D502053EA
:100370004554202000534554555020542D434F528E
:100380005245435420005345545550204859535426
:100390004552455349530053455420434C4F434B1A
:1003A00020444154450053455420434C4F434B2077
:1003B00054494D45005345542054454D50455241F4
:1003C00054555245200031322E52454C415920207F
:1003D0002020202020200031312E50494E4720205F
:1003E000202020202020200031302E425249474832
:1003F000544E455353202000392E542D414C415228
:100400004D2053455420202000382E534F554E4444
:1004100020534554202020202000372E542D434FB8
:100420005252454354205345542000362E485953C8
:10043000544552455349532053455400352E434C9F
:100440004F434B20534554204441544500342E43E0
:100450004C4F434B205345542054494D4500332EB7
:10046000504552494F445320202020202020003264
:100470002E54454D504552204D414E205345540079
:10048000312E4D4F4445205345542020202020201C
:1004900000302E455849542046524F4D204D454E70
:1004A00055003C205345545550203E0025303264C1
:1004B0002D253032642D2530326400253032640021
:1004C0002020002D0025303264002020002D002542
:1004D000303264002020002020202020204E4F2099
:1004E000202020202000202020202020594553209B
:1004F0002020202020002020202020536176653FEE
:1005000020202020200020202020205361766564B8
:100510002020202020005025643D5B00005EBCE2CE
:10052000613FDD83C29C7E20A3FD1F419DC3217FCF
:10053000FCA2401E5F01E3BD3E6082DC237D9FC1C3
:10054000421CFEA0E1BF5D0380DE3C62BEE0025CB7
:10055000DF81633D7C22C09E1D43A1FF4618FAA4A3
:1005600027799BC584DA3866E5BB5907DB8567398F
:10057000BAE406581947A5FB7826C49A653BD98783
:10058000045AB8E6A7F91B45C6987A24F8A6441A77
:1005900099C7257B3A6486D85B05E7B98CD2306E63
:1005A000EDB3510F4E10F2AC2F7193CD114FADF34F
:1005B000702ECC92D38D6F31B2EC0E50AFF1134D43
:1005C000CE90722C6D33D18F0C52B0EE326C8ED037
:1005D000530DEFB1F0AE4C1291CF2D73CA94762823
:1005E000ABF517490856B4EA6937D58B5709EBB50F
:1005F00036688AD495CB2977F4AA4816E9B7550B03
:1006000088D6346A2B7597C94A14F6A8742AC896F6
:10061000154BA9F7B6E80A54D7896B3500002200BC
:10062000250028002B002E003100340002010000BC
:10063000050108010B01202020205361766564200C
:100640002020202020002020202053617665642077
:10065000202020202000253032643A2530326400EA
:1006600025303264002020003A002530326400201A
:10067000200000000A0B02090C0D0E0807030401FC
:10068000000000000000000000000000000000006A
:100690000000000000000000000000000000121137
:1006A000100000000000000000000000000000003A
:1006B00000000000000000001112131415160A0BB0
:1006C0000C0D0E0F000102030405000020002300A2
:1006D000260029002C002F00320000010000030139
:1006E00006010901050505050705080808080202B5
:1006F00002020A0A080804040404010101010101BC
:1007000001010303030303030303040707070C0C9E
:100710000C0C0C0C0C0C0202020206060606060665
:1007200006060B0B0B0B0B0B0B0B0102102020080A
:10073000081020401020408002010201080402013C
:1007400001020408102040808040201008040201AB
:100750008004020180402010080402010804020104
:10076000010204081020408001020408102040808B
:100770007F297B2911241FBECFEFD1E2DEBFCDBF81
:1007800000E00CBF27E0A6EBB4E001C01D92A83C3E
:10079000B207E1F714E0A0E0B2E0E6E1FDE600E038
:1007A0000BBF02C007900D92A63BB107D9F713E02B
:1007B000C9EBD3E000E006C021970109802FFE01BC
:1007C0000E94F634C83BD10780E00807A9F70E94D1
:1007D000CE1F0C947A3614CC880F860F8093BB0002
:1007E00084E88093BC0081E69AEE2091BC0027FD4E
:1007F00003C00197D1F711C08091B900887F803480
:1008000021F4662311F081E008959091B900987F5A
:10081000983119F481E08627089580E0089584E9ED
:100820008093BC0081E69AEE2091BC0024FD02C0BA
:100830000197D1F78BE490E00197F1F7089584EAEE
:100840008093BC0081E69AEE2091BC0027FD03C096
:100850000197D1F706C09091B900987F81E0983058
:1008600009F080E00895CF92DF92EF92FF92CF934C
:100870008091B804C1E08C278093B8048091B804BB
:100880008823F1F1C090D704D090D804E090D90427
:10089000F090DA048FEFC81AD80AE80AF80AC09272
:1008A000D704D092D804E092D904F092DA04C701B8
:1008B000B6012AE030E040E050E00E94D434672BDB
:1008C000682B692B11F4C0933302C701B6012CE3E6
:1008D00030E040E050E00E94D434672B682B692B55
:1008E00019F481E08093320281E08093D6048091F4
:1008F000B904882329F08091B90481508093B90408
:10090000CF91FF90EF90DF90CF9008950895FC0174
:100910006283438324830895FF920F931F93CF93A1
:10092000DF93EC01F62E042F11E0198B88DF88236A
:10093000B1F0198B60E08A814FDF882381F082E07B
:10094000898B8F2D0E942F0F882349F083E0898B9C
:10095000802F0E942F0F882311F084E0898B5FDFA6
:1009600081E09989943009F080E0DF91CF911F9167
:100970000F91FF9008950F931F93CF93DF93EC0196
:10098000062F142FE881F9810280F381E02D19955B
:10099000898BFE01E00FF11D9285492F4095482378
:1009A000142B982B412F49236381CE01DF91CF91E6
:1009B0001F910F91B1CF1F93CF93DF93EC01162FAF
:1009C00081E0898B3CDF882369F160E08A8104DF64
:1009D000882341F1812F0E942F0F882319F184EA87
:1009E0008093BC0081E69AEE2091BC0027FD03C0F5
:1009F0000197D1F717C08091B900887F803191F4B9
:100A000061E08A81E9DE882369F084E88093BC0094
:100A100081E69AEE2091BC0027FD0AC00197D1F72C
:100A200080E0898BFCDE8989DF91CF911F91089549
:100A30008091B9008091B900887F883589F78091CD
:100A4000BB00EFCF0F931F93CF93DF938C01C62F83
:100A500061E070E080E090E0BAD7C8018C0F911D92
:100A6000EC016B81C801A7DF9A858923DF91CF91C3
:100A70001F910F910895CF93DF93EC0160E084E123
:100A80005FD760E085E15CD761E084E1C9D661E0D1
:100A900085E1C6D688E48093B8008091B8008A309A
:100AA00018F48AE08093B8008091B9008C7F80931D
:100AB000B90062E0CE017FDF898B86FF05C0482F39
:100AC0004F7B62E0CE0128DF6EE0CE0174DF898BC0
:100AD000982F9F7D29F0482F40726EE0CE011CDFD9
:100AE0006FE0CE0168DF898B982F937811F483FD36
:100AF00008C08477482F48606FE0CE01DF91CF9126
:100B00000BCFDF91CF9108950C94A7350C94A735A6
:100B1000CF92DF92FF920F931F93CF93DF9300D07A
:100B2000CDB7DEB78C01F62EFC01668185810E946F
:100B3000661DF11004C08091B80481113CC0F80119
:100B40008281282F082E000C330B3F938F938FEC5C
:100B500094E09F938F93CE0101966C019F938F93A6
:100B60000E94B52BB60183E697E0FAD50F900F905F
:100B70000F900F900F900F908DEC94E00E947B1DD2
:100B8000F1E0FF121DC08091B8048823C9F08AECFF
:100B900094E00E947B1D83EC94E00E947B1D82E028
:100BA000F8122CC08091B804882341F180EC94E0C5
:100BB0000E947B1D40C084ED94E00E947B1DDCCF31
:100BC000F8018381282F082E000C330B3F938F935D
:100BD00085EC94E09F938F93CE0101966C019F93D7
:100BE0008F930E94B52BB60183E697E0B9D50F909D
:100BF0000F900F900F900F900F90CDCFF801848140
:100C0000282F082E000C330B3F938F938BEB94E02F
:100C10009F938F938E010F5F1F4F1F930F930E941F
:100C2000B52BB80183E697E09BD50F900F900F90FE
:100C30000F900F900F900F900F900F90DF91CF912A
:100C40001F910F91FF90DF90CF9008956F927F9248
:100C50008F929F92AF92BF92CF92DF92EF92FF92CC
:100C60000F931F93CF93DF93CDB7DEB729970FB6BE
:100C7000F894DEBF0FBECDBF8C01FC019280A38033
:100C8000B480DD24D39485E0E82EF12C9FE1892EF9
:100C9000CC24C39423E6722E3CE0632EF2E0DF16F0
:100CA00009F448C083E0D81609F472C091E0D91263
:100CB00083C00E94A6127C018130910509F085C095
:100CC000F80182818F5F803214F4828302C0F801C0
:100CD000C282C7018B7F892B09F4D39460E0C801DD
:100CE00017DFC7010397029708F466C0E114F10407
:100CF00009F462C08091B9048111DBCF5DC0F2E0DC
:100D0000EF16F10409F473C0F3E0EF16F10411F5E6
:100D1000DA9461E0C801FCDEC7010397029708F48A
:100D20004BC0E114F10409F447C08091B904882351
:100D300009F442C00E94A6127C0181E0E816F10489
:100D4000F1F6F80183818F5F8D3014F4838302C044
:100D5000F801C382C7018B7F892BD9F6D394D9CFF1
:100D600082E0E816F10409F44DC0F3E0EF16F10457
:100D7000E9F4DA9462E0C801CBDEC7010397029779
:100D8000D8F0E114F104C1F08091B9048823A1F0F6
:100D90000E94A6127C01019719F7F80184818F5FE8
:100DA000843614F4848302C0F8011482C7018B7F57
:100DB000892B01F7D394DECF8FEF8D0D833068F54B
:100DC0008091B90481116ACF28C0029731F4F801EB
:100DD00082818150181644F48283F3E0EF16F10407
:100DE00009F077CFDA947ACFF801828272CFF801D6
:100DF0008381815018161CF0F8016382ABCFF80193
:100E0000838382CFF8018481815087FF03C0F8017A
:100E10007482CCCFF8018483A8CF8091B904882351
:100E200041F0F3E0EF16F104B1F5F8018781882372
:100E300091F1F8019282A382B482668185810E9439
:100E4000661DF8018481282F082E000C330B3F9378
:100E50008F938381282F082E000C330B3F938F93A1
:100E60008281282F082E000C330B3F938F938CEA3E
:100E700094E09F938F938E010F5F1F4F1F930F93EB
:100E80000E94B52BB80183E697E06AD40FB6F894B8
:100E9000DEBF0FBECDBFC70129960FB6F894DEBFE7
:100EA0000FBECDBFDF91CF911F910F91FF90EF90BB
:100EB000DF90CF90BF90AF909F908F907F906F907A
:100EC00008950F931F93CF93DF9320EE32E0DC0160
:100ED0002D933C938C010B571E4FEC01C75ADF4FEB
:100EE00071F00C171D0759F00B541109D801ED9141
:100EF000FC910190F081E02DC8011995F2CFDF91AE
:100F0000CF911F910F910895CF93DF93EC01D9DF1B
:100F1000CE01DF91CF910C94A7359F92AF92BF92F3
:100F2000CF92DF92EF92FF920F931F93CF93DF93B5
:100F3000EC01962E80E792E0998388838DE094E01F
:100F40009B838A8381E194E09D838C835F834E83BE
:100F5000CA0102969987888703969B878A8701979B
:100F60009D878C87BA01CE010E960E94601068851D
:100F70007985CE0148960E9460106A857B858DEC4C
:100F8000A82E8CECB82ECB2C8DE3D82EE12CF12C96
:100F900000EF11E420E030E040E751E4CE0182961A
:100FA0000E940611AE014E5F5F4F6C857D8522E089
:100FB000CE01CC960E94C410FE01E65BFF4F9082EA
:100FC0001F8A1C8A19A21E8E1BAE18AE3197108282
:100FD000CA5BDF4F1882DF91CF911F910F91FF9075
:100FE000EF90DF90CF90BF90AF909F9008950F93B8
:100FF0001F93CF93DF931F921F92CDB7DEB78B0164
:10100000FB0160819A838983CE0101960E94B6110B
:10101000C8010F900F90DF91CF911F910F9108950C
:10102000CF93DF93EB010E9485338883CE01DF915C
:10103000CF910895CF92DF92EF92FF920F931F937B
:10104000CF93DF93EB017B0124E0E20EF11C8B01D7
:101050006C01C61AD70AC601800F911F0E94853302
:10106000F80181938F01EE15FF05A9F7CE01DF91FD
:10107000CF911F910F91FF90EF90DF90CF90089547
:10108000CF93DF93EC01BC01605F7F4F8D899E8918
:10109000C7DFBE016F5E7F4F8D899E890196C0DFDD
:1010A000BE01665E7F4F8F8D98A1BADFBE01655E7F
:1010B0007F4F8F8D98A10196B3DFBE016C5D7F4F8E
:1010C00089AD9AADB7DFBE01625C7F4FC95BDF4F70
:1010D00088819981DF91CF91A3CF2F923F924F9238
:1010E0005F926F927F928F929F92AF92BF92CF92B8
:1010F000DF92EF92FF920F931F93CF93DF93CDB7C1
:10110000DEB765970FB6F894DEBF0FBECDBF8C017A
:1011100083E697E094D560E080E00E94661DF801C8
:10112000E65BFF4F80811F928F9386E195E09F934E
:101130008F93CE0101967C019F938F930E94B52BD4
:10114000B70183E697E00CD368019EE0C90ED11C7D
:1011500084E0F801828B138AC601D9D766E273E076
:1011600083E697E0FDD25801F8E1AF0EB11C8AE0AA
:10117000F801848F158EC501CAD765E174E083E656
:1011800097E0EED261E080E00E94661D61E073E0CE
:1011900083E697E0E5D23801F2E26F0E711C82E03F
:1011A000F80186ABFF24F394F7AAC3010E944B1108
:1011B0004801FCE38F0E911CF801EC5BFF4F89E0C6
:1011C00080833196F082C40139D70F900F900F9031
:1011D0000F900F900F9045E0E42EF12C552453947E
:1011E00082E05816E9F0851520F091E0591641F09B
:1011F0004AC0E3E05E1629F1F4E05F16A1F143C0B6
:10120000C6010E947D137C018B7F892B11F432E093
:10121000532E83E0E816F10409F45A94C6010FC076
:10122000C5010E947D137C018B7F892B11F423E083
:10123000522E93E0E916F10409F45A94C50167D7D8
:1012400022C0C3010E943E157C018B7F892B11F4C3
:1012500094E0592EE3E0EE16F10409F45A94C30128
:101260000E944B1110C0C4010E94FB137C018B7FB4
:10127000892B11F485E0582EF3E0EF16F10409F400
:101280005A94C401DBD68FEF850D843020F4809111
:10129000B9048111A5CF8091B904811103C0C8019F
:1012A000EFDE79C0C601DFD6811129C0C501DBD6CA
:1012B000811125C0BE016E5E7F4FF80181AD92ADF8
:1012C000B9DEFC016081718182819381F80124A1E2
:1012D00035A146A157A10E946932811110C0BE01FB
:1012E0006E5E7F4FF801E95BFF4F8081918198DE50
:1012F000FC019081F80186AD981709F44CC083E693
:1013000097E09DD460E080E00E94661D86EF94E047
:101310000E947B1D55245394442443940E94A6129A
:101320001C010197029708F4542461E080E00E94B8
:10133000661D552019F086EE94E002C087ED94E01A
:101340000E947B1DF4E02F16310421F08091B90436
:101350008111E4CF8091B904882309F4A0CF5520EE
:1013600009F49DCFC6010E941512C5010E941512F5
:10137000C3010E943812C4010E94D61161E080E0CE
:101380000E94661D86E095E00E947B1D64EF71E07F
:1013900080E090E01CD360E080E00E94661D67E181
:1013A00074E083E697E0DCD1C70165960FB6F89448
:1013B000DEBF0FBECDBFDF91CF911F910F91FF9088
:1013C000EF90DF90CF90BF90AF909F908F907F90E5
:1013D0006F905F904F903F902F9008950895CF9217
:1013E000DF92EF92FF920F931F93CF93DF936C01E5
:1013F0007A018B01C0E0D0E0CE15DF0589F0D8017D
:101400006D918D01D601ED91FC910190F081E02D5F
:10141000C6011995892B11F47E0102C02196ECCFEB
:10142000C701DF91CF911F910F91FF90EF90DF9057
:10143000CF900895FC01538D448D252F30E0842FEB
:1014400090E0821B930B541710F0CF9608950197EC
:101450000895FC01918D828D981761F0828DDF01D6
:10146000A80FB11D5D968C91928D9F5F9F73928F97
:1014700090E008958FEF9FEF0895FC01918D828D8C
:10148000981731F0828DE80FF11D858D90E0089559
:101490008FEF9FEF0895FC01918D228D892F90E0B1
:1014A000805C9F4F821B91098F739927089588EE66
:1014B00094E0F1DF21E0892B09F420E0822F0895E8
:1014C000FC01848DDF01A80FB11DA35ABF4F2C91E1
:1014D000848D90E001968F739927848FA689B789B0
:1014E0002C93A089B1898C9180648C93938D848D89
:1014F000981306C00288F389E02D80818F7D808358
:101500000895EF92FF920F931F93CF93DF93EC0117
:1015100081E0888F9B8D8C8D981305C0E889F989AF
:10152000808185FD23C0F62E0B8D10E00F5F1F4FCD
:101530000F731127E02E8C8DE8120BC00FB607FC3D
:10154000FACFE889F989808185FFF5CFCE01B8DF30
:10155000F2CF8B8DFE01E80FF11DE35AFF4FF082B1
:101560000B8FEA89FB898081806207C0EE89FF8941
:101570006083E889F98980818064808381E090E0DC
:10158000DF91CF911F910F91FF90EF900895CF932E
:10159000DF93EC01888D8823C1F0EA89FB89808183
:1015A00085FD05C0A889B9898C9186FD0EC00FB64E
:1015B00007FCF5CF808185FFF2CFA889B9898C918E
:1015C00085FFEDCFCE017CDFE8CFDF91CF9108958D
:1015D00080E090E0892B19F06ADF811125C080E05E
:1015E00090E0892B41F080E090E0892B21F00E946F
:1015F000000081111CC080E090E0892B41F080E068
:1016000090E0892B21F00E940000811113C080E03E
:1016100090E0892BA1F080E090E0892B81F00E947E
:10162000000081110AC008950E940000D8CF0E94D6
:101630000000E1CF0E940000EACF0C940000089562
:101640003FB7F8948091E0049091E104A091E20406
:10165000B091E30426B5A89B05C02F3F19F0019671
:10166000A11DB11D3FBFBA2FA92F982F8827820F28
:10167000911DA11DB11DBC01CD0142E0660F771F78
:10168000881F991F4A95D1F70895089580E090E04A
:10169000089508950E943F36DC01ED91FC91019080
:1016A000F081E02D19946115710579F0FB0101902D
:1016B0000020E9F73197AF01461B570BDC01ED9194
:1016C000FC910280F381E02D199480E090E0089570
:1016D0004F925F926F927F92EF92FF920F931F93C0
:1016E000CF93DF93CDB7DEB7A1970FB6F894DEBFE7
:1016F0000FBECDBF7C01FA01CB0119A2223008F444
:101700002AE08E010F5D1F4F422E512C612C712C4F
:10171000BF01A30192010E94D434F901CA01015012
:1017200011096A3014F4605D01C0695CD8016C93E2
:10173000232B242B252B61F7B801C701B4DFA19619
:101740000FB6F894DEBF0FBECDBFDF91CF911F91D2
:101750000F91FF90EF907F906F905F904F90089562
:10176000A2CF1F920F920FB60F9211240BB60F92B9
:101770002F933F934F935F936F937F938F939F9399
:10178000AF93BF93EF93FF9388EE94E099DEFF91C0
:10179000EF91BF91AF919F918F917F916F915F91E9
:1017A0004F913F912F910F900BBE0F900FBE0F9056
:1017B0001F9018951F920F920FB60F9211240BB61F
:1017C0000F922F938F939F93EF93FF93E091F804E1
:1017D000F091F9048081E091FE04F091FF0482FD14
:1017E00012C09081809101058F5F8F732091020557
:1017F000821751F0E0910105F0E0E851FB4F958F21
:101800008093010501C08081FF91EF919F918F919D
:101810002F910F900BBE0F900FBE0F901F90189539
:10182000362F90E0FC01EE58F94F4491FC01E65D43
:10183000F84F2491FC01EC51F94F9491992309F44C
:101840006BC0442309F455C050E0FA013197E231EE
:10185000F10508F04EC08827E457FF4F8F4F0C94D6
:10186000F634809180008F7707C0809180008F7D53
:1018700003C080918000877F809380003AC084B548
:101880008F7702C084B58F7D84BD33C08091B00056
:101890008F7703C08091B0008F7D8093B00029C006
:1018A000809190008F7707C0809190008F7D03C05A
:1018B00080919000877F809390001BC08091A00052
:1018C0008F7707C08091A0008F7D03C08091A0001A
:1018D000877F8093A0000DC0809120018F7707C083
:1018E000809120018F7D03C080912001877F8093AC
:1018F0002001E92FF0E0EE0FFF1FE45EF94FA59104
:10190000B4918FB7F894EC91311103C020952E2338
:1019100001C02E2B2C938FBF0895CF93DF93EC0142
:1019200060E08E817DDF61E08E817ADF60E08E8114
:1019300077DF8BE891E00197F1F7DF91CF91089580
:10194000CF93DF9390E0FC01E65DF84F2491FC011A
:10195000EC51F94F8491882361F190E0880F991F31
:10196000FC01EB56FD4FC591D491FC01E45EF94FAB
:10197000A591B491611109C09FB7F8948881209511
:1019800082238883EC912E230BC0623061F49FB7D1
:10199000F8943881822F809583238883EC912E2BB5
:1019A0002C939FBF06C08FB7F894E8812E2B288315
:1019B0008FBFDF91CF9108958230910538F0880F65
:1019C000991F880F991F05970197F1F708958F9236
:1019D0009F92AF92BF92CF92DF92EF92FF926B01F4
:1019E0007C012EDE4B015C01C114D104E104F10441
:1019F000E9F026DEDC01CB0188199909AA09BB09A7
:101A0000883E9340A105B10578F321E0C21AD108C0
:101A1000E108F10888EE880E83E0981EA11CB11C35
:101A2000C114D104E104F10421F7DECFFF90EF905F
:101A3000DF90CF90BF90AF909F908F9008952FB779
:101A4000F8946091DC047091DD048091DE04909143
:101A5000DF042FBF08951F920F920FB60F9211242B
:101A60002F933F938F939F93AF93BF938091DC0409
:101A70009091DD04A091DE04B091DF043091DB048D
:101A800023E0230F2D3720F40196A11DB11D05C0C1
:101A900026E8230F0296A11DB11D2093DB0480933D
:101AA000DC049093DD04A093DE04B093DF04809106
:101AB000E0049091E104A091E204B091E304019666
:101AC000A11DB11D8093E0049093E104A093E20472
:101AD000B093E304BF91AF919F918F913F912F916C
:101AE0000F900FBE0F901F9018951F920F920FB678
:101AF0000F9211240BB60F922F933F934F935F9346
:101B00006F937F938F939F93AF93BF93EF93FF93C5
:101B1000E091B604F091B7041995FF91EF91BF9150
:101B2000AF919F918F917F916F915F914F913F9175
:101B30002F910F900BBE0F900FBE0F901F90189516
:101B4000CF92DF92EF92FF920F931F93CF93DF9389
:101B50007C016C0187E0C80ED11CC0E0D0E0062FEC
:101B600010E0B8010C2E02C0759567950A94E2F753
:101B70006170F60181916F0153DE2196C430D10569
:101B800081F7C701DF91CF911F910F91FF90EF90E7
:101B9000DF90CF90C2CECF92DF92EF92FF920F9361
:101BA0001F93CF93DF93EC01F62E642F8C8138DEE8
:101BB0008D818F3F11F060E033DE8F850F2D10E0B7
:101BC00084FF23C06E0187E0C80ED11CE12CF12CEC
:101BD000B8010E2C02C0759567950A94E2F7617002
:101BE000F60181916F011CDEFFEFEF1AFF0A88E01A
:101BF000E816F10469F7CE01DF91CF911F910F91A3
:101C0000FF90EF90DF90CF9088CEB80184E075957B
:101C100067958A95E1F7CE0193DF6F2DCE01DF91B5
:101C2000CF911F910F91FF90EF90DF90CF9088CFD1
:101C300041E0B1DF81E090E0089540E0ACCF61E0A9
:101C4000FCDF8BE39FE10197F1F70895DC01E0E011
:101C5000615038F08D91E827F0E0E45EFA4FE491AE
:101C6000F7CF8E2F0895FC0190810180F281E02D45
:101C7000F8948181892B81832281892F8095282363
:101C80002283A7E0B0E01197F1F7218182238183BD
:101C9000A3E2B0E01197F1F780817894EFECF0E0E7
:101CA0003197F1F7982381E009F480E00895FC0171
:101CB00090810180F281E02D892F809560FF12C014
:101CC000F8942281822382838181892B8183A3E2FC
:101CD000B0E01197F1F78281982B9283789487ED89
:101CE00090E011C0F8942281822382838181892B24
:101CF0008183AFEFB0E01197F1F78281982B928347
:101D000078948FE090E00197F1F70895CF92DF92F9
:101D1000EF92FF920F931F93CF93DF931F92CDB754
:101D2000DEB76C01E62E08E010E0FF24F39461E0DA
:101D30008F2D8E2109F460E0C6014983B8DFFF0CC6
:101D40000150110949810115110589F7411115C08B
:101D5000F894D6011196ED91FC91129791818C9196
:101D60008095892381831196ED91FC911297928140
:101D70008C9180958923828378940F90DF91CF9105
:101D80001F910F91FF90EF90DF90CF900895CF9229
:101D9000DF92EF92FF920F931F93CF93DF931F92E7
:101DA000CDB7DEB78C01F62E40E065E57983AEDF76
:101DB000CF2C7981D72E760188E0E80EF11CF60150
:101DC00061916F0140E0C801A1DFCE14DF04B9F7D3
:101DD0000F90DF91CF911F910F91FF90EF90DF90C7
:101DE000CF900895FC0190810180F281E02DF8945C
:101DF0008181292F20958223818378948DE743E088
:101E000050E0815021F1DA011197F1F73081392347
:101E1000C1F3F8948281822382838181892B81831B
:101E20007894ABE7B7E01197F1F7F8948181282314
:101E30002183A3E1B1E01197F1F78081982381E03C
:101E400009F080E07894E3E6F6E03197F1F7089541
:101E50008EBD00000DB407FEFDCF8EB508958093B2
:101E6000BB0084E88093BC0081E69AEE2091BC0020
:101E700027FD03C00197D1F706C09091B900987F64
:101E800081E0983209F080E00895FC016283438389
:101E90000895FC0182810895FC0182810895FC016E
:101EA00082810895FC016281738184819581089506
:101EB000FC014283538364837583CB01BA01089587
:101EC000FC0162817381848195810895823391053B
:101ED0008CF0833C91058CF08C3721E0920784F0E4
:101EE0008B3222E092077CF0863193407CF085E0D3
:101EF00090E0089580E090E0089581E090E00895FA
:101F000082E090E0089583E090E0089584E090E01E
:101F10000895CF93DF93EC016A834B8389858823EF
:101F200071F0BE016E5F7F4F8F81988560D8BE01D2
:101F30006D5F7F4F8F819885DF91CF9158C8DF917A
:101F4000CF9108950C94A7350C94A7350C94A73520
:101F50000C94A7350C94A7350C94A735CF92DF923B
:101F6000FF920F931F93CF93DF9300D0CDB7DEB7CF
:101F70008C01F62EFC01658184810E94661DF110A2
:101F800004C08091B80481112CC0F8018281282FEF
:101F9000082E000C330B3F938F938AE696E09F93B5
:101FA0008F93CE0101966C019F938F930E94B52B66
:101FB000B60183E697E0D4DB0F900F900F900F905F
:101FC0000F900F9088E696E00E947B1DFF2071F035
:101FD0008091B804882351F085E696E00E947B1D2D
:101FE00022C08FE696E00E947B1DECCFF801838132
:101FF000282F082E000C330B3F938F9380E696E03A
:102000009F938F938E010F5F1F4F1F930F930E941B
:10201000B52BB80183E697E0A3DB0F900F900F90EC
:102020000F900F900F900F900F900F90DF91CF9126
:102030001F910F91FF90DF90CF900895CF93DF9382
:10204000EC01698588850E94661DEA81EE0FFF0B11
:102050008B819C81E80FF91F6081718183E697E095
:10206000DF91CF917DCBEF92FF921F93CF93DF93C0
:10207000EC01EF80F884C7010E948533182FC70157
:1020800001960E948533282F4A81042E000C550B9F
:10209000812F90E04817590759F44B81042E000C0A
:1020A000550B30E081E04217530719F480E001C07E
:1020B00081E0DF91CF911F91FF90EF9008950895F7
:1020C000CF93DF93EC01CB011A821B8221E02E8398
:1020D00044E652E05983488378876F832987BE019D
:1020E0006E5F7F4F0E9410088A81883108F01A8243
:1020F0008F819885BE016D5F7F4F01960E94100809
:102100008B818C3308F01B82DF91CF9108950F9360
:102110001F93CF93DF9300D000D0CDB7DEB78C01F3
:10212000FC01658184810E94661DF8018381282F4E
:10213000082E000C330B3F938F938281282F082E9B
:10214000000C330B3F938F9386E596E09F938F931C
:102150008E010F5F1F4F1F930F930E94B52BB80185
:1021600083E697E0FDDA0FB6F894DEBF0FBECDBF71
:1021700026960FB6F894DEBF0FBECDBFDF91CF918C
:102180001F910F9108950895CF93DF93EC01DB0128
:1021900080ED92E0998388831A825C834B832D8340
:1021A0001F821E82188681E089878A8790E09217B5
:1021B000BCF4E92FEE0FFF0BE40FF51F6081718176
:1021C000FB0101900020E9F73197E61BF70B6E81C8
:1021D0007F816E177F0714F4FF83EE839F5FE7CF45
:1021E00088E792E099838883BC87AB8781E08D87FD
:1021F000BE016E5F7F4FCD010E941008FC018081FF
:102200008A83DF91CF91089508950895AF92BF9288
:10221000CF92DF92EF92FF920F931F93CF93DF93B2
:10222000EC01FB012A833B834C835D832E833F8338
:1022300048875987EA86FB860C871D87AE86BF864E
:10224000C88AD98A1A8A82E08B8B1C8A91E09D8B7E
:102250009E8B26E932E039832883788F6F8B998FA4
:10226000BE016E5F7F4FCF010E941A08FC01808182
:102270009181A281B3818A839B83AC83BD83DF91EB
:10228000CF911F910F91FF90EF90DF90CF90BF9073
:10229000AF9008950895CF92DF92EF92FF920F933F
:1022A0001F93CF93DF93CDB7DEB767970FB6F89440
:1022B000DEBF0FBECDBF7C016E0182E1C80ED11C16
:1022C000F7016281738184819581860121E042E07A
:1022D0000E94932B20E030E0A901F7016281738115
:1022E000848195810E94AD340151110987FD1AC086
:1022F000F7018289882329F0DF92CF9288E294E067
:1023000004C0DF92CF928CE294E09F938F931F934F
:102310000F930E944A360F900F900F900F900F90DE
:102320000F9004C0B601C8010E944336F7016589C9
:1023300084890E94661DB80183E697E011DAF701EF
:102340006389662319F083E697E072DC67960FB61F
:10235000F894DEBF0FBECDBFDF91CF911F910F91DB
:10236000FF90EF90DF90CF9008950895EF92FF9245
:102370000F931F93CF93DF931F92CDB7DEB77C01EE
:10238000FC0100811181C80169830E948533698144
:10239000681719F0C8010E948D33C7010F90DF91B3
:1023A000CF911F910F91FF90EF9008950F931F937E
:1023B000CF93DF931F921F92CDB7DEB78C01BE0182
:1023C0006F5F7F4FFC01838594850E941008FC019C
:1023D0008081F80162818617C1F0838594859A8394
:1023E0008983CE010196C2DFF8018585882369F0D3
:1023F00061E080E00E94661D86E496E00E947B1DFD
:1024000064EF71E080E090E0E2DA0F900F90DF91EE
:10241000CF911F910F910895CF93DF93EC016A83C1
:10242000C5DF8A81DF91CF9108950F931F93CF93DA
:10243000DF931F921F92CDB7DEB78C01FC01628142
:10244000878190859A838983CE0101968FDFF80179
:1024500063818781908501969A838983CE01019655
:1024600085DF0F900F90DF91CF911F910F9108950D
:10247000AF92BF92CF92DF92EF92FF920F931F9392
:10248000CF93DF9300D01F92CDB7DEB78C01BE0192
:102490006F5F7F4FFC018789908D0E941A08FC01B5
:1024A0006081718182819381F8012281338144812D
:1024B00055810E946932882359F1F801C788D08C70
:1024C0005801F6E0AF0EB11CC80102967C01C81A93
:1024D000D90AC6018E0D9F1DF70161917F019A8374
:1024E0008983CE01019642DFEA14FB0491F7F801DB
:1024F000818D882369F061E080E00E94661D86E39B
:1025000096E00E947B1D64EF71E080E090E05FDA6E
:102510000F900F900F900F90DF91CF911F910F911F
:10252000FF90EF90DF90CF90BF90AF900895CF9342
:10253000DF93EC014A835B836C837D8399DF6A813F
:102540007B818C819D81DF91CF910895CF92DF9225
:10255000EF92FF92CF93DF9372DA6B017C010E94BE
:102560004E1DB4DCEC010E944E1DB0DCC817D9072B
:10257000B1F7C530D10501F18091E4049091E504F3
:10258000A091E604B091E704A7019601281B390B3E
:102590004A0B5B0B293C31054105510568F0C0929F
:1025A000E404D092E504E092E604F092E7048AE0C5
:1025B0008093B904CE0102C085E090E0DF91CF9115
:1025C000FF90EF90DF90CF900895BF92CF92DF926F
:1025D000EF92FF920F931F93CF93DF93EC01DA807A
:1025E000EB80FF24F39487E1C82E9BE3B92E82E0B1
:1025F000F816C1F1FF24F394A9DF8C018130910515
:1026000009F04BC08A818F5F883114F48A8301C03E
:102610001A82C8018B7F892B09F4F39460E0CE0104
:102620009DDCC8010397029778F10115110561F14E
:102630008091B9048111E0CF27C0029709F43CC012
:1026400003301105D9F4FA9461E0CE0187DCC801AA
:1026500003970297C8F001151105B1F08091B904F4
:10266000882391F073DF8C018130910531F78B81E4
:102670008F5F8C3314F48B8301C01B82C8018B7F66
:10268000892B11F7F394E0CF8FEF8F0D8230E0F4B8
:102690008091B9048111ABCF17C0029729F48A81C8
:1026A000815087FD07C08A830330110509F0B1CF3F
:1026B000FA94B4CFCA82ADCF8B81815087FF02C01C
:1026C000BB82DCCF8B83BCCF8091B904882331F0EF
:1026D0000330110539F48E81882321F0DA82EB82F0
:1026E000CE0115DDC801DF91CF911F910F91FF90B1
:1026F000EF90DF90CF90BF9008950F931F93CF93EB
:10270000DF93EC0162DF8C018B7F892B29F48985B3
:10271000882311F0CE0189DEC801DF91CF911F918E
:102720000F910895FF920F931F93CF93DF93EC01C6
:10273000FA80698588850E94661D8091B804882387
:1027400079F000E010E08E819F8108171907ACF442
:1027500067E673E083E697E003D80F5F1F4FF3CF80
:10276000EA81EE0FFF0B8B819C81E80FF91F6081DE
:10277000718183E697E00E94B00BE8DE8C01813026
:10278000910539F48A818F5F9D818917CCF01A8277
:1027900012C08230910541F48A8181508A8387FF7B
:1027A0000AC08D8181500CC08430910559F000978A
:1027B00049F0039739F08091B9048111BACF02C072
:1027C0008A83F9CF8091B904882331F00330110551
:1027D00059F48A85882341F0FA82E881F9810284DC
:1027E000F385E02DCE011995C801DF91CF911F919E
:1027F0000F91FF9008950F931F93CF93DF93EC01F8
:1028000091DF8C018B7F892B29F48D85882311F032
:10281000CE01CCDDC801DF91CF911F910F910895BA
:102820002F923F924F925F926F927F928F929F92E0
:10283000AF92BF92CF92DF92EF92FF920F931F93CE
:10284000CF93DF93CDB7DEB7A6970FB6F894DEBF70
:102850000FBECDBF7C01DC0112968D919D910D9034
:10286000BC91A02D8BA39CA3ADA3BEA3FE0131966A
:102870004F01CE0142966C01D70112966D917D9168
:102880008D919C911597840121E042E00E94932B49
:1028900020E030E0A901F701628173818481958194
:1028A0000E94AD3487FD1BC0D70152968C918823BE
:1028B00029F09F928F92A8E2B4E004C09F928F9279
:1028C000ACE2B4E0BF93AF93DF92CF920E944A365E
:1028D0000F900F900F900F900F900F9004C0B401C5
:1028E000C6010E944336D70155966C915597549670
:1028F0008C910E94661D8091B8048823A9F000E0A5
:1029000010E0F60101900020E9F73197EC19FD097C
:102910000E171F07A8F467E673E083E697E00E94AE
:10292000B00B0F5F1F4FEDCFB60183E697E00E941B
:10293000B00BF7016389662319F083E697E078D935
:1029400005DE5C018130910581F4D7011E962D9141
:102950003D914D915C91519712966D917D918D9124
:102960009C9115970E94B53311C00297A1F4D7012D
:102970001E962D913D914D915C91519712966D91BE
:102980007D918D919C9115970E94B433F7016283DC
:10299000738384839583D70112962C901297139694
:1029A0003C90139714964C90149715965C9015973D
:1029B00016966C90169717967C90179718960C9110
:1029C000189719961C919301A801B101C2010E94A8
:1029D000693287FD0FC0F701628473840485158511
:1029E0009301A801B101C2010E94AD34181614F080
:1029F00031018201C301D801F70182839383A4834B
:102A0000B583A114B10441F0C5010397029720F0EA
:102A10008091B904811130CF8091B904882349F0A5
:102A2000F3E0AF16B10481F4D70156968C91882358
:102A300059F08BA19CA1ADA1BEA1F7018283938324
:102A4000A483B583C70127DCC501A6960FB6F89409
:102A5000DEBF0FBECDBFDF91CF911F910F91FF90D1
:102A6000EF90DF90CF90BF90AF909F908F907F902E
:102A70006F905F904F903F902F9008950F931F930A
:102A8000CF93DF93EC01CCDE8C018B7F892B29F473
:102A9000898D882311F0CE01EBDCC801DF91CF9145
:102AA0001F910F910895CF92DF92EF92FF920F93B3
:102AB0001F93CF93DF93C82FD62F042F11E080915F
:102AC000B607821310E00E941F0DC090B707D09088
:102AD000B807E090B907F090BA07A70196010E94E5
:102AE000D434F694E794D794C7946C157D058E057D
:102AF0009F0508F442C0D23009F442C028F4DD2317
:102B000051F0D13011F115C1D33009F467C0D43080
:102B100009F4B1C00EC1E091A707F091A807E00F3A
:102B2000F11D111105C0C73008F0C6E0C05D01C03D
:102B3000C0E2C083FEC0D33008F04CC0DD2309F4EE
:102B4000EEC0D13009F0F5C010E0C43608F0C3E69D
:102B5000202F30E0E091A707F091A807E20FF31FC4
:102B6000111106C08C2F6AE00E94B534805D01C04F
:102B700080E280832F5F3F4FC1C0D230E1F610E08A
:102B8000C73008F0C6E0202F30E0E091A707F091B1
:102B9000A807E20FF31F111108C0A091AB07B09175
:102BA000AC07AC0FB11D8C9101C080E280832F5F18
:102BB0003F4FE091A707F091A807E20FF31F111113
:102BC00053C0A091AB07B091AC07AC0FB11D1196EB
:102BD0008C914BC0D33009F04AC010E0C73308F0E5
:102BE000C6E3E02FF0E0A091A707B091A8079D01F0
:102BF0002E0F3F1F111109C08091AD079091AE07B4
:102C00008C0F911DDC018C9101C080E2D9018C9365
:102C1000A091A707B091A807CF0101969D01280FA9
:102C2000391F11110AC08091AD079091AE078C0F2A
:102C3000911DDC0111968C9101C080E2D9018C9329
:102C40009F012E5F3F4FE091A707F091A807E20F89
:102C5000F31F111109C0A091AD07B091AE07AC0FE1
:102C6000B11D12968C9101C080E2808362C0D43085
:102C700009F05FC010E0C43608F0C3E6202F30E052
:102C8000E091A707F091A807E20FF31F11110AC006
:102C90008091BB0790E001976AE070E00E94C13428
:102CA000605D01C060E26083E091A707F091A80732
:102CB000C9010196E80FF91F11110AC08091BB07E5
:102CC00090E001976AE070E00E94C134805D01C02D
:102CD00080E28083E091A707F091A807C9010296DE
:102CE000E80FF91F111106C08C2F6AE00E94B5345D
:102CF000805D01C080E280832D5F3F4FE091A70798
:102D0000F091A807E20FF31F111106C08C2F6AE0A3
:102D10000E94B534905D01C090E290830AC0C73034
:102D200008F0C6E0E091A707F091A807E00FF11DB9
:102D3000FDCEDF91CF911F910F91FF90EF90DF902B
:102D4000CF9008950F931F93CF93DF9300D000D0BF
:102D5000CDB7DEB726E02093520728E530E03A836E
:102D60002983009729F44FEF50EE65EF75E004C01A
:102D700048E356E56CE475E04B835C836D837E83AA
:102D800090938805809387051AE010928F05F2D7FB
:102D9000CE01019687D7082F8823C9F081E0809360
:102DA0008F0560E374E088EE94E00E94B00B4B81E5
:102DB0005C816D817E812AE088EE94E00E94680B40
:102DC00068EB73E088EE94E00E94530B0BC08FE336
:102DD00094E0FBD661E070E080E090E00E94E70CB8
:102DE000115099F6802F26960FB6F894DEBF0FBECD
:102DF000CDBFDF91CF911F910F910895CF93DF93B6
:102E0000CCE9D7E089859A85DC01ED91FC910280BF
:102E1000F381E02D60E01995982F969596959695FB
:102E20009E71292F220F220F920F8F70890F8B8B8B
:102E3000888389859A85DC01ED91FC910280F3817C
:102E4000E02D61E01995982F9695969596959E712F
:102E5000292F220F220F920F8F70890F8C8B89835D
:102E600089859A85DC01ED91FC910280F381E02D4A
:102E700062E01995982F9695969596959E71292FB3
:102E8000220F220F920F8F70890F8D8B8B83898574
:102E90009A85DC01ED91FC910280F381E02D63E0E5
:102EA0001995982F9695969596959E71292F220F94
:102EB000220F920F8F70890F8E8B8D8389859A8553
:102EC000DC01ED91FC910280F381E02D64E0199525
:102ED000982F9695969596959E71292F220F220FE1
:102EE000920F8F70890F8F8B8F8389859A85DC0174
:102EF000ED91FC910280F381E02D65E01995982F0A
:102F00009695969596959E71292F220F220F920FD6
:102F10008F70890F888F888789859A85DC01ED916C
:102F2000FC910280F381E02D66E01995282F2F7027
:102F300021508695869586958E71982F990F990FB9
:102F4000890F820F898F8E830E941F0D6AA37BA336
:102F50008CA39DA3DF91CF9108958F929F92AF9202
:102F6000BF92CF92DF92EF92FF921F93CF93DF93A6
:102F7000C090BE07D090BF07E090C007F090C10797
:102F80000E941F0D6C157D058E059F0540F4109263
:102F9000BE071092BF071092C0071092C107209180
:102FA000BC073091BD072115310511F427DFAFC0F3
:102FB0008091BE079091BF07A091C007B091C10753
:102FC0000097A105B10591F36C017D01C20ED31EDE
:102FD000E11CF11C0E941F0D6C157D058E059F05DF
:102FE00028F70E941F0DC090BE07D090BF07E09049
:102FF000C007F090C1076C197D098E099F0928EE62
:1030000033E040E050E00E94D434D091B3071091F7
:10301000B407D23009F0ADC0812F90E083709927BA
:10302000892B09F4A1C0CCE18091AF0749015A0175
:10303000880E911CA11CB11CC501B4012CE3C22E49
:10304000D12CE12CF12CA70196010E94D43460937D
:103050009C078091B00749015A01880E911CA11C60
:10306000B11CC501B401A70196010E94D43460933C
:103070009D078091B10759016A01A80EB11CC11CBE
:10308000D11CC601B50128E130E040E050E00E94CB
:10309000D43460939F078091B507820F873008F082
:1030A00065C08093A2078091B20769017A01C80EBA
:1030B000D11CE11CF11CC701B6012C2F30E02F5FA1
:1030C0003F4F032E000C440B550B0E94D434620F6B
:1030D0006093A107CA01B9016D0F711D811D911D7A
:1030E0002DE030E040E050E00E94D434620F609365
:1030F000A307CA01B901610F711D811D911D24E64D
:1031000030E040E050E00E94D4346093A407209166
:103110009F07822F6CE00E94B534911101C09CE0A2
:1031200090939E0791E02C3008F490E09093A007D4
:103130008091A7079091A8070E94A73581E090E0B1
:103140000E9412359093A8078093A707FC01108274
:10315000DF91CF911F91FF90EF90DF90CF90BF90C4
:10316000AF909F908F900895CDE15ECF1092A2070F
:103170009ACF6D2F70E081E090E0D83010F480E0BD
:1031800090E0860F971F81709927CEE1C80F4CCF32
:10319000CF93DF93EC0161E08AE00E94A00C2097BE
:1031A00011F460E004C0CF3FD10531F461E08AE062
:1031B000DF91CF910C94100CECE7F6E0E4918E2FA8
:1031C00090E0FC013197E231F10508F09DC08827BD
:1031D000E256FF4F8F4F0C94F63484B5806884BD5F
:1031E000C7BD97C084B5806284BDC8BD92C08091C0
:1031F0008000806880938000D0938900C09388000D
:1032000088C080918000806280938000D0938B0082
:10321000C0938A007EC08091800088608093800087
:10322000D0938D00C0938C0074C08091B0008068F2
:103230008093B000C093B3006CC08091B0008062F6
:103240008093B000C093B40064C080919000806807
:1032500080939000D0939900C09398005AC08091B9
:103260009000806280939000D0939B00C0939A005E
:1032700050C080919000886080939000D0939D0012
:10328000C0939C0046C08091A00080688093A000FD
:103290008091A0008F7B8093A000D093A900C09361
:1032A000A80037C08091A00080628093A000D093D6
:1032B000AB00C093AA002DC08091A00088608093CD
:1032C000A000D093AD00C093AC0023C0809120013A
:1032D000806880932001D0932901C093280119C0F0
:1032E00080912001806280932001D0932B01C093B4
:1032F0002A010FC080912001886080932001D09323
:103300002D01C0932C0105C0C038D1050CF04ECF63
:1033100048CFDF91CF910895CF92DF92EF92FF9245
:10332000CF93DF936C01990FEE08FF08F7FE1BC0E7
:103330006DE283E697E00E944C0BEC014427552791
:10334000BA014C195D096E097F092AE083E697E00E
:103350000E94680B8C0F9D1FDF91CF91FF90EF9023
:10336000DF90CF9008952AE0B701A60183E697E0A9
:10337000DF91CF91FF90EF90DF90CF900C94680B8E
:103380004F925F926F927F928F929F92AF92BF9275
:10339000CF92DF92EF92FF926B017C019B01AC0117
:1033A0000E94B134882319F06BE474E01AC046011E
:1033B0005701E894B7F82FEF3FEF4FE75FE7C501FC
:1033C000B4010E94B134811112C02FEF3FEF4FE7DB
:1033D0005FE7C501B4010E946932181644F46FE436
:1033E00074E088EE94E00E94530B7C018AC02FEFBA
:1033F0003FEF4FE75FE4C701B6010E94AD341816F6
:103400001CF463E574E0EDCF2FEF3FEF4FE75FEC87
:10341000C701B6010E94693287FDF3CF20E030E09A
:10342000A901C701B6010E94693287FF0BC06DE296
:1034300088EE94E00E944C0B5C01F7FAF094F7F8E8
:10344000F09402C0A12CB12C2AE037ED43EA5BE3F3
:10345000C701B6010E94B5332B013C010E948134A3
:103460006B017C010E946D329B01AC01C301B20172
:103470000E94B4332B013C012AE0B701A60188EE7B
:1034800094E00E94680B7C01EA0CFB1C6EE288EE63
:1034900094E00E944C0BE80EF91E20E030E040E280
:1034A00051E4C301B2010E94CE322B013C010E94C3
:1034B00081344B01A12CB12C2AE0B501A40188EE86
:1034C00094E00E94680BE80EF91EC501B4010E9449
:1034D0006D329B01AC01C301B2010E94B43320E004
:1034E00030E040E251E40E94CE320E948134AB01D0
:1034F00060E070E02AE088EE94E00E94680BE80E3D
:10350000F91E68EB73E088EE94E00E94530B8E0D79
:103510009F1DFF90EF90DF90CF90BF90AF909F9056
:103520008F907F906F905F904F900895EF92FF92F1
:103530000F931F93CF93DF9300D0CDB7DEB7162F35
:103540004A837B83898370D389818F7180620E94D3
:10355000280F082FE12E7B81F72E4A81140F1E15AC
:1035600031F0F70181917F010E94280FF8CF5AD3E3
:10357000802F0F900F900F90DF91CF911F910F919F
:10358000FF90EF90089580E0E0D381FD0AC0682F9E
:10359000626080E05BD365E070E080E090E00C94D6
:1035A000E70C0895F0DF80E0D0D3682F616080E001
:1035B0004DD360E787E04AD381E064D3809154071C
:1035C000882339F04091590764E577E08AE0AEDF5F
:1035D00010C082E0BAD3E4ECF6E0E49121E030E000
:1035E00001C0220FEA95EAF72095622F682382E056
:1035F0002DD38DE1AAD381FD19C30895CF93DF9315
:10360000EFEBF6E08491CBE4D7E04E8566EA72E01A
:103610008DDFE9EBF6E084916F8118D382E095D3DA
:10362000E5ECF6E0E49161E070E001C0660FEA9538
:10363000EAF7682B82E0DF91CF9108C30F931F93C5
:10364000CF938C0186E081D3C82FC77D023011054E
:1036500031F4C0628BE990E0A0E0B0E00DC0013031
:10366000110529F085E590E0A0E0B0E005C0C86054
:1036700081E490E0A0E0B0E080935B0790935C076A
:10368000A0935D07B0935E076C2F86E0DFD286E0E3
:103690005CD391E08C1390E0892FCF911F910F9113
:1036A0000895EF92FF920F931F93CF93DF931F9292
:1036B000CDB7DEB7162F877028E0829FC001112496
:1036C000682F606483E697E079830E941D0EE12EE7
:1036D0007981F72E8701085F1F4FF70161917F0104
:1036E00083E697E00E94180EE016F106B1F70F90FE
:1036F000DF91CF911F910F91FF90EF900895EF927E
:10370000FF920F931F93CF93DF93EC01623018F079
:103710008F8588608F876B8B1C8A80E48D8B80E11E
:103720008E8B80E58F8B61E08C810E94A00C8D8157
:103730008F3F19F061E00E94A00C61E08E810E9431
:10374000A00C7E0187E0E80EF11C00E010E08F8500
:1037500084FD03C084E090E002C088E090E0081798
:1037600019074CF461E0F70181917F010E94A00CE0
:103770000F5F1F4FECCF8BE39DE00197F1F760E007
:103780008C810E94100C60E08E810E94100C8D8153
:103790008F3F19F060E00E94100C6F8564FD1DC022
:1037A00063E0CE010E94A00D0BE416E4C80101976E
:1037B000F1F763E0CE010E94A00DC8010197F1F777
:1037C00063E0CE010E94A00D83E592E00197F1F73E
:1037D00062E0CE010E94A00D16C06062CE010E9480
:1037E0001D0E8BE496E40197F1F76F856062CE01C0
:1037F0000E941D0E83E592E00197F1F76F856062EC
:10380000CE010E941D0E6F856062CE010E941D0ECA
:1038100084E0888B6CE0CE010E941D0ECE010E94D8
:103820001F0E82E0898B66E0CE01DF91CF911F9160
:103830000F91FF90EF900C941D0EAF92BF92CF921C
:10384000DF92EF92FF920F931F93CF93DF938B0141
:10385000BC0180918007909181070E94C70E40E0D3
:103860006EEB80918007909181070E94860EE8019F
:10387000680189E0C80ED11CA0908007B090810734
:1038800088E0E82EF12C01E010E0C5010E94330E23
:103890008111102B000F81E0E81AF108B1F719939C
:1038A000CC15DD0549F780918007909181070E9432
:1038B000F20E91E0813009F090E0892FDF91CF91F5
:1038C0001F910F91FF90EF90DF90CF90BF90AF903E
:1038D00008950F931F93CF93DF938C01EB01809199
:1038E0008007909181070E94F20E882361F0BE014B
:1038F000C801A3DF882339F068E0CE010E94260EBC
:1039000091E02885821390E0892FDF91CF911F915C
:103910000F910895AF92BF92CF92DF92EF92FF92F4
:103920000F931F93CF93DF931F92CDB7DEB75C0148
:10393000D62EE72EFC018585811105C0C5010E94A8
:10394000F20E811106C0F50113861586148680E0FB
:1039500065C040E060EFC5010E94860E01E0F12CD9
:10396000C12C11E0C5010E94330E682FC501698387
:103970000E94330E6981613019F48130B9F433C08B
:103980004F2D50E068131BC0F5018385181730F4E4
:10399000E40FF51F8381802349F402C0181731F02A
:1039A00060E0193058F4F501148708C0F501EF0DF7
:1039B000F11D8381802B838361E009C0C12EF50155
:1039C000E40FF51F9381802F809589238383C501A0
:1039D0000E94570E1F5F000F11F4F39401E0F7E00F
:1039E000FF1508F0BFCF113408F4ADCFF501C38641
:1039F000C11002C081E08587F5018381882309F425
:103A0000A2CFD5011396ED2DFE2D9501255F3F4FD9
:103A10008D918193A217B307D9F781E00F90DF91C1
:103A2000CF911F910F91FF90EF90DF90CF90BF90BB
:103A3000AF9008950F931F93CF93DF938C01D62FF0
:103A4000E0918007F0918107138615861486DF01C7
:103A50001B9633961E92AE17BF07E1F7C0E0B80180
:103A6000809180079091810755DF811102C080E02D
:103A700010C0CD130AC067E0C8010E94260EF801ED
:103A80009781891302C081E004C0CF5FDC1778F30F
:103A9000E6CFDF91CF911F910F91089580917B0028
:103AA000877F80937B0080E480937C0080917A0004
:103AB000806480937A0080917A0086FDFCCF8091AB
:103AC00078002091790090E0922B0895643008F0FE
:103AD00063E090917607691710F06FEF690FE62F9A
:103AE000F0E0ED59F84F9489682F690F606883E61C
:103AF00097E00C941D0E0F931F93CF93DF938C01CF
:103B0000C0E0D0E0F801EC0FFD1F6491662371F076
:103B1000E0916307F09164070190F081E02D83E666
:103B200097E01995892B11F02196ECCFCE01DF910A
:103B3000CF911F910F9108958F929F92AF92BF9254
:103B4000DF92EF92FF920F931F93CF93DF93EC01DD
:103B5000D42E480159017C018EE0E80EF11C40E0B2
:103B6000C7010E94890FC7010E9415127E0188E1DA
:103B7000E80EF11C4BE36D2DC7010E94890FC701B0
:103B80000E9415127E0182E2E80EF11C8CA29DA219
:103B9000AEA2BFA2C7010E943812C7010E9438120C
:103BA0008E01045C1F4F1EAEC8010E94D611C801D1
:103BB000DF91CF911F910F91FF90EF90DF90BF9019
:103BC000AF909F908F900C94D611CF93DF93BC0150
:103BD00088EE94E00E94530BEC0168EB73E088EEF2
:103BE00094E00E94530B8C0F9D1FDF91CF9108959D
:103BF000CF93DF939CB59F7D9CBD9CB5937F9CBD6F
:103C00009CB59C7F9CBD9DB591609DBDCBE4D7E0EC
:103C1000682F8A810E94100C8C899D89DF91CF9139
:103C20000C94DC0C81E0E4CF80E0E2CFCF93DF9313
:103C30001F92CDB7DEB7F8DF81EE0E94280F89838F
:103C4000F1DF89810F90DF91CF9108951F93CF937A
:103C5000DF931F921F92CDB7DEB76A838983E4DFBB
:103C600089818F7180620E94280F182F6A81862FA8
:103C70000E94280FD7DF812F0F900F90DF91CF91F7
:103C80001F91089520914B0730914C0740914D07AB
:103C900050914E072417350721F0682F822F0C947E
:103CA000100C0895DF92EF92FF920F931F93CF9322
:103CB000DF931F92CDB7DEB7F82E20915207D22E98
:103CC000273010F086E0D82E80915307811103C071
:103CD000E22EED1801C0E12C9983A6DF80EA0E9454
:103CE000280F0F2D9981192FDA94FFEFDF1631F08D
:103CF000F80181918F010E94280FF6CFEE2029F064
:103D000080E00E94280FEA94F9CF8CDF81E0BADFCF
:103D10008BDF8FEF0E94280F898384DF8981807376
:103D2000B9F380E0AFDF60E787E090DF84FF03C096
:103D30007DDF80E001C081E00F90DF91CF911F9186
:103D40000F91FF90EF90DF900895CF93DF931F9234
:103D5000CDB7DEB7898368DF89818F710E94280F14
:103D60008FEF0E94280F89835DDF89810F90DF919B
:103D7000CF91089580E086DF80915B0790915C078A
:103D80000E94DC0C8DE1E1DF81FF07C080915B07C1
:103D900090915C070E94DC0C49DF80E0D6DF682F41
:103DA0006E7F80E053DF82E0D0DFE4ECF6E0E49168
:103DB00061E070E001C0660FEA95EAF7682B82E0E7
:103DC00045CFCF93DF93CDB7DEB729970FB6F894E1
:103DD000DEBF0FBECDBFFC0120812031C9F0BE0186
:103DE0006F5F7F4F76DD882389F08D818F3361F09F
:103DF00020F48F3159F489E00CC08F3519F08F37DA
:103E000039F004C08BE005C08AE003C080E001C047
:103E10008CE029960FB6F894DEBF0FBECDBFDF91C0
:103E2000CF910895AF92BF92CF92DF92EF92FF921F
:103E30000F931F93CF93DF935B016A01E9018D33E9
:103E40009105A8F4A091A507B091A607ED91FC916A
:103E500011976AE00E94B534492F20E1829F400DFE
:103E600011240480F581E02D60E0CD0119958DE3EA
:103E7000A816B104B0F4A091A507B091A607ED91E2
:103E8000FC9111978A2D6AE00E94B534492F20E1F8
:103E9000829F400D11240480F581E02D61E0CD0169
:103EA000199588E1C816D104B0F4A091A507B09186
:103EB000A607ED91FC9111978C2D6AE00E94B53414
:103EC000492F20E1829F400D11240480F581E02DCF
:103ED00062E0CD011995CE0101974F97B0F4A09102
:103EE000A507B091A607ED91FC9111978C2F6AE080
:103EF0000E94B534492F20E1829F400D1124048097
:103F0000F581E02D63E0CD011995C80101970C976B
:103F1000B0F4A091A507B091A607ED91FC9111977F
:103F2000802F6AE00E94B534492F20E1829F400D26
:103F300011240480F581E02D64E0CD01199584E61B
:103F4000E816F10400F5A091A507B091A607ED9140
:103F5000FC9111978E2D6AE00E94B534492F20E123
:103F6000829F400D11240480F581E02D65E0CD0194
:103F7000DF91CF911F910F91FF90EF90DF90CF9045
:103F8000BF90AF901994DF91CF911F910F91FF9047
:103F9000EF90DF90CF90BF90AF900895CF93DF93D5
:103FA000CDB7DEB76E970FB6F894DEBF0FBECDBFAC
:103FB000789484B5826084BD84B5816084BD85B504
:103FC000826085BD85B5816085BD80916E00816010
:103FD00080936E00109281008091810082608093B6
:103FE00081008091810081608093810080918000B8
:103FF0008160809380008091B10084608093B100E3
:104000008091B00081608093B000809191008260C7
:1040100080939100809191008160809391008091C4
:1040200090008160809390008091A10082608093D5
:10403000A1008091A10081608093A1008091A000E7
:1040400081608093A0008091210182608093210192
:104050008091210181608093210180912001816004
:104060008093200180917A00846080937A0080910F
:104070007A00826080937A0080917A0081608093D8
:104080007A0080917A00806880937A001092C10053
:104090006CE271E080E090E00E94E70CE091F804AF
:1040A000F091F90482E08083E091F404F091F5044A
:1040B0001082E091F604F091F7048FEC8083109267
:1040C0000005E091FC04F091FD0486E08083E0911E
:1040D000FA04F091FB04808180618083E091FA040E
:1040E000F091FB04808188608083E091FA04F09174
:1040F000FB04808180688083E091FA04F091FB04E6
:1041000080818F7D80838091A5079091A607DC0137
:10411000ED91FC910190F081E02D19950E94AD1771
:1041200080E69AEE9093BD078093BC07E0918007EC
:10413000F0918107138615861486DF011B9633964E
:104140001E92AE17BF07E1F710927F076E01B2E132
:10415000CB0ED11C11E0B6018091800790918107B0
:10416000D9DB882309F450C067E0C6010E94260EFF
:10417000998D8913F0CF80917B07811125C08091A3
:104180008007909181070E94F20EB601809180070E
:10419000909181070E94C70E40E064EB80918007F8
:1041A000909181070E94860E8091800790918107EF
:1041B0000E94330E082F80918007909181070E9402
:1041C000F20E002309F457C5809180079091810772
:1041D0000E94F20E882329F0BE016F5F7F4FC60157
:1041E0002CDB00917C07C601ECDD801718F4809170
:1041F0007C0702C0C601E5DD80937C0780917F07C4
:104200008F5F80937F07A7CF8CE080937C0700E0CF
:1042100010E08FE5F82E9FE7E92E2FE1B22E3FE365
:10422000A32E80917F0790E0081719070CF07FC03C
:10423000602FC601FFDB20917C07BE016F5F7F4FBF
:10424000C6012E8F46DB2E8D882309F46DC08A8926
:10425000803109F469C02B3041F02C3021F02A3034
:1042600031F4AD8205C0ED8203C0FD8201C0BD8284
:1042700080918007909181070E94F20EB601809193
:104280008007909181070E94C70E40E06EE4809104
:104290008007909181070E94860E40E06B8180919B
:1042A0008007909181070E94860E40E06C8180918A
:1042B0008007909181070E94860E8A89803141F0A3
:1042C00040E06D8180918007909181070E94860E69
:1042D00080918007909181070E94F20EB601809133
:1042E0008007909181070E94C70E40917B0768E488
:1042F00080918007909181070E94860E64E170E0B2
:1043000080E090E00E94E70C80917B07882331F0E9
:104310006AE070E080E090E00E94E70C8091800706
:10432000909181070E94F20E0F5F1F4F7ACF80910C
:104330004B0790914C0720914D0730914E07821703
:10434000930719F061E00E94A00C80914D079091B5
:104350004E0720914B0730914C072817390719F069
:1043600061E00E94A00C1FB7F8948091BA048111FB
:1043700027C0E9E1F7E08491EFE5F7E09491E82FB9
:10438000F0E0EE0FFF1FEB56FD4FA591B491EC91BD
:10439000E92321F461E085E30E94100C61E085E3EC
:1043A0000E94A00C8CB580618CBD8CB580648CBDE6
:1043B00061E084E30E94A00C61E083E30E94A00C12
:1043C0008091BA048F5F8093BA041FBF80E05ADCEB
:1043D00081E00EDC65E070E080E090E00E94E70C98
:1043E0006CE080E033DC6FE584E030DC82E090E07C
:1043F00025D9882319F081E08093510786E0A5DC58
:1044000080E090E01BD910DC80E50E94280F83E754
:104410000E94280F07DC60E08DE118DC60E08CE191
:1044200015DC1092530760E787E010DC6CE485E050
:104430000DDCFADB82EE0E94280FF4DBF7DBA3D859
:1044400080E083DC682F6E7F80E000DC62E070E05B
:1044500080E090E00E94E70C69E085E0F7DB82E015
:1044600090E0ECD86FE381E0F1DB6FE584E0EEDB18
:1044700086E06BDC887F682F656086E0E7DB409133
:10448000590760EA72E08AE051D84091590760EA22
:1044900072E080E14BD86091520781E1D7DBAED862
:1044A00081D862E083E697E02AD968E272E081E091
:1044B000F8D860E272E082E0F4D868E172E083E06C
:1044C000F0D860E172E084E0ECD868E072E085E06A
:1044D000E8D860E072E086E0E4D880E18093910063
:1044E0001092900083E08093BD0484E294EF909357
:1044F000BC048093BB04909397008093960083E163
:104500008093910083E394E09093B7048093B60482
:1045100011E01093710080E090E00E9485338037B5
:1045200009F471C060E780E090E00E948D33109341
:10453000260784E297E00E94D6111092AC051092F3
:10454000AD051092AE051092AF058AEA95E00E9483
:10455000381280E090E0A0E0BFE380939205909352
:104560009305A0939405B093950580E995E00E948A
:10457000381280E090E0A0EDB1E48093C6059093FE
:10458000C705A093C805B093C90584EC95E00E94C7
:10459000381200E010E028EA31E445E060E08EEDFA
:1045A00095E0CADA00E010E028EB31E447E066E08D
:1045B00089E296E0C1DA00E010E020EB31E440E16E
:1045C00068E084E796E0B8DA00E010E028EB31E438
:1045D00047E161E18FEB96E0AFDA10923F078DE3A0
:1045E00097E00E94D61180E090E0A0EBB1E48093C8
:1045F0000C0790930D07A0930E07B0930F078AE066
:1046000097E00E94381281E08093BC05FE0131964C
:104610004F010E94A6128530910509F0A3C2809136
:104620003302882309F429C1809180079091810782
:104630000E94F20E40E06CEC80918007909181071F
:104640000E94860E40917B0764E4809180079091E0
:1046500081070E94860E80917D078823A9F0E09152
:104660007C07E950E33040F4F0E0EE0FFF1FEE5B13
:10467000FD4F6081718102C06EEE72E0072E000C6A
:10468000880B990B0E94E70C60E0C601D3D9811119
:1046900005C060E070E08EEF92EC44C0B401C6014A
:1046A00018D9882359F16981F8E06F9FB00111246E
:1046B0008A81282F30E0322F2227330F330F330F18
:1046C000262B372B8A898031E1F4688570E08F8151
:1046D000AB01481B5109CA019695982F88279795D9
:1046E00087950E94C13460517109207FF3E0220F49
:1046F000331FFA95E1F7620F731F04C060E874EE90
:1047000001C0B901613854EE75071CF2072E000C88
:10471000880B990B0E946F3220E030E040E05CE3B0
:104720000E94CE3210923302E2EDF4E00EEB14E080
:104730007290629052904290448255826682778253
:10474000A4E0EE3BFA07A1F76093BE047093BF04A8
:104750008093C0049093C104B12C412C512C3201A0
:10476000F80160817181828193810E94C019D80112
:104770002D913D914D915D918D012A8F3B8F4C8FF5
:104780005D8F20E030E0A9016A8D7B8D8C8D9D8D41
:104790000E94AD3418165CF42A8D3B8D4C8D5D8DD6
:1047A000C301B2010E94B5332B013C01B394B4E0C4
:1047B000063D1B07A9F66AEF72E088EE94E00E94BE
:1047C000B00BC301B2010E94C019BB20A9F06B2D30
:1047D00070E080E090E00E946F329B01AC01C30169
:1047E000B2010E941934840121E042E09CD7C40147
:1047F000B9D72B013C0103C0412C512C320161E09F
:1048000073E088EE94E00E94B00BC301B2010E94F5
:10481000C01964E073E088EE94E00E94B00B6091F0
:10482000AC057091AD058091AE059091AF050E94E9
:10483000C0192091AC053091AD054091AE05509165
:10484000AF05C301B2010E94B5336093890570932F
:104850008A0580938B0590938C0565E173E088EE63
:1048600094E00E94B00B6091890570918A05809157
:104870008B0590918C050E94C019609189057091FB
:104880008A0580918B0590918C05860121E042E09C
:104890004AD78091B804882309F4A1C00E94AD17BB
:1048A00060E080E013D98091A4071F928F938091DC
:1048B000A3071F928F938091A1071F928F9383EC80
:1048C00092E09F938F939F928F924FD7B40183E68C
:1048D00097E00E94B00B67E673E083E697E00E94E2
:1048E000B00B0FB6F894DEBF0FBECDBF8091870529
:1048F00090918805892B31F461E083E697E00E946E
:10490000180E06C067E673E083E697E00E94B00BDE
:1049100067E673E083E697E00E94B00B80913F0763
:10492000813019F462E273E008C080918D059091A6
:104930008E05019639F465E273E083E697E00E9404
:10494000B00B0DC068E273E083E697E00E94B00B05
:1049500080918D0590918E0501960E948C1960E0E2
:104960008EE0B4D863E083E697E00E94180E809151
:104970008F05882311F064E001C065E083E697E0CD
:104980000E94180EDF92CF9280919C071F928F9306
:1049900080919D071F928F9380919F071F928F9305
:1049A0008FEA92E09F938F939F928F92DED661E081
:1049B00080E08CD8B40183E697E00E94B00B62E0FF
:1049C00083E697E00E94180E61E070E080E090E0DE
:1049D0000E94E70C0FB6F894DEBF0FBECDBF8091EA
:1049E0003202882309F444C11092320280913F07B9
:1049F000811170C00E94AD1780919D0720919F0783
:104A000090913F07913049F48FEF9FEF90938E057F
:104A100080938D0581E090E0A2C090E03CE3239F6D
:104A2000800D911D11248C0100561A4FECE1F6E027
:104A300060E070E02081211144C0DF019E972C913D
:104A40001A96FC90AF014D525109DA014C91042E97
:104A5000000C550BBCE32B02400D511D11249F018E
:104A600023523109D9012C91022E000C330BBF2D9A
:104A7000ACE3BA02200D311D1124241735073CF494
:104A800020563A4F841795073CF4D80101C0DC0149
:104A9000A417B507B4F001C0DC012A173B078CF05E
:104AA00070938E0560938D058BE4869FF001879F40
:104AB000F00D1124E050FA4F628173818481958159
:104AC00011C06F5F7F4FE55BFF4F6430710509F0E8
:104AD000B1CF9ACF60910C0770910D0780910E07AE
:104AE00090910F0720918705309188052115310598
:104AF00021F021303105E9F030C02091920530914C
:104B0000930540919405509195050E94B5339B0102
:104B1000AC0101E010E06091890570918A058091F7
:104B20008B0590918C050E94AD3487FD00E0C80193
:104B300016C011E09B01AC016091890570918A0556
:104B400080918B0590918C050E94693218160CF4A7
:104B500010E081E0812790E002C080E090E00E94B8
:104B6000A21686C08B7F892B09F082C0BB24B39428
:104B70005CE0A52E83E697E00E941F0E60E080E0D7
:104B80000E94661D82EA94E00E947B1D0E94A6128C
:104B90008C018530910589F08130910511F4BA942A
:104BA00004C0029709F0A1C3B394BCE0BB150CF498
:104BB000A0C3B7FE02C04CE0B42E61E080E00E94CA
:104BC000661D4B2C0B2C000C550866087708EDE091
:104BD0004E16510478F5F2018827EE58FF4F8F4F9B
:104BE0000C94F63481E994E023C080E894E020C07E
:104BF0008FE694E01DC08EE594E01AC08DE494E049
:104C000017C08CE394E014C08BE294E011C08AE1F9
:104C100094E00EC089E094E00BC088EF93E008C0F8
:104C200088EE93E005C087ED93E002C086EC93E048
:104C30000E947B1DC8010397029700F18091B9047F
:104C40008111A4CF1BC0123009F40AC38EED95E088
:104C50000E946D088091B904811152C09AE090932E
:104C6000B904882309F4ECC283E697E00E941F0E82
:104C70000E94E80ACECC10937B07A6CA8091B904A3
:104C8000882309F4D0C20330110509F4CCC2FDE039
:104C90004F16510408F0D2C2F2018827E158FF4FA5
:104CA0008F4F0C94F63483E697E00E941F0E60E06D
:104CB00080E00E94661D6AE273E083E697E00E944E
:104CC000B00B87E08093450781E0809346078DE332
:104CD00097E031C183E697E00E941F0E60E080E01C
:104CE0000E94661D85EB93E00E947B1D85E080930A
:104CF0001E0781E080931F078AE097E033C111E02F
:104D00000E94A6127C018530910579F081309105D1
:104D100011F4115007C0029729F41F5F15302CF0D1
:104D200011E003C0111101C014E061E080E00E94B5
:104D3000661D133051F0143059F0123019F083E42D
:104D400093E008C083E393E005C083E293E002C0F0
:104D500082E193E00E947B1DC7010397029708F44C
:104D600065C28091B9048111CBCF60C283E697E020
:104D70000E941F0E60E080E00E94661D86EA93E0BC
:104D80000E947B1D0E94AD1780919D0790919F0707
:104D900028E532E03A8329839B838C8311E01F83CB
:104DA00083E697E00E941F0E60E080E00E94661D8F
:104DB00082E093E00E947B1D85E08D831E83C40109
:104DC0000E94E512049709F039C24B81042E000CB1
:104DD000550B6C81062E000C770BEE24EA94FE2C0A
:104DE0000FEF1FEF2FEF3FEF80E090E044C083E62E
:104DF00097E00E941F0E60E080E00E94661D87E938
:104E000093E00E947B1D0E94AD178091A4079091B2
:104E1000A3072091A107ACE4B2E0BA83A9832B8356
:104E20009C838D8311E0188783E697E00E941F0E14
:104E300060E080E00E94661D83EF92E00E947B1D8F
:104E400083E08E831F83C4010E942606049709F025
:104E5000F5C1ED800E2C000CFF080C81002E000C1B
:104E6000110B2B81022E000C330B4FEF5FEF6FEF16
:104E70007FEF8FEF9FEF0E94121F0E94FE1620917E
:104E80009F07822F6A2D0E94B534911101C09CE0CA
:104E900090939E0791E02C3008F490E09093A00747
:104EA000CDC183E697E00E941F0E60E080E00E9483
:104EB000661D86E893E00E947B1D85E08093A40533
:104EC00081E08093A50580E995E04CC083E697E0FA
:104ED0000E941F0E60E080E00E94661D85E793E05F
:104EE0000E947B1D85E08093BE0581E08093BF0515
:104EF0008AEA95E037C083E697E00E941F0E60E0E3
:104F000080E00E94661D60E473E083E697E00E9403
:104F1000B00B61E080E00E94661D60E573E083E60F
:104F200097E00E94B00B87E080932C0781E080938C
:104F30002D0784E297E00E94FB1380C183E697E08F
:104F40000E941F0E60E080E00E94661D84E693E0F0
:104F50000E947B1D85E08093D80581E08093D90570
:104F600084EC95E00E943E1569C1009130021091D9
:104F7000310283E697E00E941F0E60E080E00E940D
:104F8000661D84EE92E00E947B1D61E080E00E943D
:104F9000661D0436110524F482EE92E00E947B1D0A
:104FA000C8010E948C190E94A6127C0181309105D3
:104FB00019F4065F1F4F8EC1029719F40A501109A8
:104FC00089C10A3011053CF00F3F110531F02CF07A
:104FD0000FEF10E002C00AE010E0C8010E94C818FC
:104FE000C7010397029708F43EC18091B90481116B
:104FF000CCCF39C186E08093520761E080E00E9407
:10500000661D68E573E083E697E00E94B00B61E0FF
:1050100080E00E94661D2AE0722E00E010E069E642
:1050200073E083E697E00E94B00B0E94BA1E25E56C
:1050300030E03B8B2A8B0E941F0D6C8B7D8B8E8BFF
:105040009F8BC6010E94521E811105C08BE693E022
:105050000E94E51D8BC00E94FE1A0E94D21A0E9477
:105060001F0D1B012C01F12C87E10E94A51E80FD64
:105070001EC1FF2029F089E793E00E94E51D70C062
:1050800080915207863010F4582E02C096E0592EB7
:1050900090915307911103C0682E651801C0612CCF
:1050A0000E94141E81E60E94280F74015A94BFEFDB
:1050B0005B1639F08FEF0E94280FD7018D937D0189
:1050C000F5CF662029F08FEF0E94280F6A94F9CF60
:1050D0000E94121E60E787E00E94261E0E941F0D9C
:1050E0006A8F7B8F8C8F9D8FE980FA80E6E5EE16C4
:1050F000F10411F50F5F1F4F65E973E088EE94E04E
:105100000E94B00B2B803C804D805E802AE0B20173
:10511000A10188EE94E00E94680B64EA73E088EED7
:1051200094E00E94B00B4A8D5B8D6C8D7D8D421991
:1051300053096409750909C06BEB73E088EE94E0CC
:105140000E94B00BA70160E070E02AE088EE94E0D6
:105150000E94680B68EB73E088EE94E00E94530BAA
:105160006EE170E080E090E00E94E70C7A947110AC
:1051700056CF1F928AE08F931F930F93A2EEB3E056
:10518000BF93AF939F928F920E944A36C4010E94B0
:10519000E51D61E080E00E94661DB40183E697E0B2
:1051A0000E94B00B68EE73E080E090E00E94E70C94
:1051B00061E080E00E94661D83E593E00E947B1D14
:1051C0000FB6F894DEBF0FBECDBF38C083E697E0C0
:1051D0000E941F0E60E080E00E94661D64EF73E095
:1051E00083E697E00E94B00B61E080E00E94661DBC
:1051F00064E074E083E697E00E94B00B88E080935F
:105200003A0781E080933B0782E397E00E94921384
:1052100081E090E020913407211102C080E090E00D
:105220000E94A2160BC0B12C81E018CD8091B90468
:10523000882321F053E0E516F10439F480E00ECD27
:105240008091B904811196CC0FCD133019F484E705
:1052500096E0FECC143009F0F6CC8FEB96E0F8CC5B
:1052600089E296E0F5CC34E0E316F104C9F48091CC
:105270003002909131028017910791F01093310222
:105280000093300261E080E00E94661D82ED92E0B2
:105290000E947B1D64EF71E080E090E00E94E70CCB
:1052A00080913002909131020E94C818C7CFF1104E
:1052B000E2CE0E941F0DDC01CB0182199309A409E3
:1052C000B509FF24F394893C9105A105B10508F0C7
:1052D000CBCEC9CE0A3011050CF076CE8AE090E034
:1052E0000E94C8180AE010E080CE4CE04B150CF08C
:1052F00064CCB12C62CC85E895E00C946107AF9248
:10530000BF92CF92DF92EF92FF920F931F93CF93B2
:10531000DF931092EB041092EA0478EEC72E73E04C
:10532000D72EE12CF12CC092EC04D092ED04E09247
:10533000EE04F092EF048EEB92E09093E9048093F8
:10534000E80485EC90E09093F5048093F40484ECF9
:1053500090E09093F7048093F60480EC90E09093B3
:10536000F9048093F80481EC90E09093FB0480931F
:10537000FA0482EC90E09093FD048093FC0486ECA8
:1053800090E09093FF048093FE0410920105109228
:105390000205109203051092040510929C071092CA
:1053A0009D0781E080939E0710929F071092A007AF
:1053B0008093A1071092A2078093A3071092A407DD
:1053C00081E090E00E9412359093A8078093A70790
:1053D00087E594E09093AA078093A90785E694E077
:1053E0009093AC078093AB078EE694E09093AE0762
:1053F0008093AD071092B607C092B707D092B80756
:10540000E092B907F092BA0785E18093BB0710924A
:10541000BD071092BC071092BE071092BF071092F2
:10542000C0071092C10782E190E00E94123524EF7C
:1054300032E0FC013183208328E6228327E0ECEA76
:10544000F2E0DC01139601900D922A95E1F727E036
:10545000E3EBF2E0DC011A9601900D922A95E1F758
:105460009093A6078093A50760E086E10E94A00CB8
:10547000E0E4F7E0E491E0938E07EAEFF6E0E491F0
:10548000F0E0EE0FFF1FE653F94F85919491909352
:10549000900780938F071092990710929B071092A4
:1054A0009A07E9E9F7E0129287E0E139F807D9F7BE
:1054B00089E49BE090938D0780938C078EE897E0BA
:1054C000909381078093800710927F0710927B074B
:1054D00089E080937C07C1E0C0937D07C0937E077D
:1054E000109266071092650728EE32E03093640749
:1054F0002093630798E0909367079FEF9093680766
:105500008093690784E080936A07D5E0D0936B07A6
:1055100086E080936C0787E080936D0710926E079A
:1055200010926F0710927007109271071092720715
:1055300061E083E697E00E947F1B80E390E0909318
:105540004C0780934B0785E390E090934E07809340
:105550004D071092510780E2809352071092530733
:10556000D093590785E090E0A0E0B0E080935F071A
:1055700090936007A0936107B0936207109254075D
:1055800080EE92E0909386058093850581E090E01F
:10559000909388058093870510928F058DECA82E37
:1055A0008CECB82ECB2C8DE3D82EE12CF12C00E026
:1055B00010E420E030E0A90169E070E080E995E0C6
:1055C0000E940611E12CF12C00E410E420E030E010
:1055D00040E450EC65E070E08AEA95E00E94061134
:1055E000A12CB12C30E8C32E3FE3D32EE12CF12CBB
:1055F00000EF11E420E030E040E751E462E370E0C6
:1056000084EC95E00E9406114DE050E061E08EEDE3
:1056100095E00E948D0746E150E062E089E296E065
:105620000E948D074FE150E063E084E796E00E941E
:105630008D0748E250E064E08FEB96E00E948D0712
:105640005DECA52E5CECB52ECB2C5DE3D52EE12CCC
:10565000F12C00ED11E420E030E0A90161E070E000
:105660008AE097E00E94061122E048E352E061E3FD
:1056700070E084E297E00E94C41080ED92E0909385
:10568000330780933207C093340788E392E0909306
:1056900036078093350782E08093370710923907E9
:1056A0001092380710923A07C0933B07C0933C070B
:1056B000A0913802B0913902FD0101900020E9F774
:1056C0003197EA1BFB0B1E161F0624F4F0933907D3
:1056D000E0933807A0913A02B0913B02FD0101909E
:1056E0000020E9F73197EA1BFB0B80913807909176
:1056F00039078E179F0724F4F0933907E093380792
:1057000022E044E352E066E370E08DE397E0DF914E
:10571000CF911F910F91FF90EF90DF90CF90BF90AE
:10572000AF900C94C410EF920F931F93CF93DF931D
:10573000E80147FD02C034E001C034E1E42F440F2A
:10574000FF0BF7FF03C0F195E195F109E32E022F5E
:105750002E2FAE0127D2CE01DF91CF911F910F9155
:10576000EF90089566277727AAC30F931F93CF93CF
:10577000DF93CDB7DEB72E970FB6F894DEBF0FBE1E
:10578000CDBF0E891F898EE08C831A8309838FEF2A
:105790009FE79E838D83AE01465E5F4F688D798D56
:1057A000CE01019611D02F813885F801E20FF31F49
:1057B00010822E960FB6F894DEBF0FBECDBFDF91DC
:1057C000CF911F910F9108952F923F924F925F9228
:1057D0006F927F928F929F92AF92BF92CF92DF9201
:1057E000EF92FF920F931F93CF93DF93CDB7DEB766
:1057F0002C970FB6F894DEBF0FBECDBF7C016B01B6
:105800008A01FC0117821682838181FFB0C1CE011B
:1058100001964C01F7019381F60193FD859193FF69
:1058200081916F01882309F49EC1853239F493FD7B
:10583000859193FF81916F01853221F4B70190E04A
:10584000B2D5E8CF512C312C20E02032A0F48B329D
:1058500069F030F4803259F0833269F420612CC051
:105860008D3239F0803339F4216026C02260246003
:1058700023C0286021C027FD27C030ED380F3A3003
:1058800078F426FF06C0FAE05F9E300D1124532EF7
:1058900013C08AE0389E300D1124332E20620CC0D4
:1058A0008E3221F426FD5FC1206406C08C3611F4CF
:1058B000206802C0883641F4F60193FD859193FF7C
:1058C00081916F018111C1CF982F9F7D95549330A5
:1058D00028F40C5F1F4FFFE3F9830DC0833631F0CE
:1058E000833771F0833509F057C021C0F8018081FA
:1058F00089830E5F1F4F44244394512C540114C0DC
:105900003801F2E06F0E711CF801A080B18026FF13
:1059100003C0652D70E002C06FEF7FEFC5012C87DB
:1059200037D52C0183012C852F77222E16C0380104
:10593000F2E06F0E711CF801A080B18026FF03C059
:10594000652D70E002C06FEF7FEFC5012C8715D584
:105950002C012C852068222E830123FC19C0832D65
:1059600090E048165906A0F4B70180E290E01BD5FC
:105970003A94F5CFF50127FC859127FE81915F01CF
:10598000B70190E010D531103A94F1E04F1A510868
:105990004114510479F7DEC0843611F0893631F5AF
:1059A000F80127FF07C060817181828193810C5FBC
:1059B0001F4F08C060817181072E000C880B990B66
:1059C0000E5F1F4F2F76722E97FF09C0909580951E
:1059D000709561957F4F8F4F9F4F2068722E2AE000
:1059E00030E0A40118D5A82EA81843C0853729F4A3
:1059F0002F7EB22E2AE030E025C0F22FF97FBF2E95
:105A00008F36C1F018F4883579F0ADC0803719F0C1
:105A1000883721F0A8C02F2F2061B22EB4FE0DC010
:105A20008B2D8460B82E09C024FF0AC09F2F96607A
:105A3000B92E06C028E030E005C020E130E002C009
:105A400020E132E0F801B7FE07C0608171818281F8
:105A500093810C5F1F4F06C06081718180E090E0F0
:105A60000E5F1F4FA401D7D4A82EA818FB2DFF77D7
:105A70007F2E76FE0BC0372D3E7FA51450F474FEAA
:105A80000AC072FC08C0372D3E7E05C0BA2C372DE7
:105A900003C0BA2C01C0B52C34FF0DC0FE01EA0DC5
:105AA000F11D8081803311F4397E09C032FF06C0B8
:105AB000B394B39404C0832F867809F0B39433FD74
:105AC00012C030FF06C05A2CB31418F4530C5B18E4
:105AD000B32CB31460F4B70180E290E03C8763D448
